{"abi":[{"type":"function","name":"RELATIVE_BROADCAST_PATH","inputs":[],"outputs":[{"name":"","type":"string","internalType":"string"}],"stateMutability":"view"},{"type":"function","name":"RELATIVE_SCRIPT_PATH","inputs":[],"outputs":[{"name":"","type":"string","internalType":"string"}],"stateMutability":"view"},{"type":"function","name":"cleanStringPath","inputs":[{"name":"stringToClean","type":"string","internalType":"string"}],"outputs":[{"name":"","type":"string","internalType":"string"}],"stateMutability":"pure"},{"type":"function","name":"vm","inputs":[],"outputs":[{"name":"","type":"Vm","internalType":"contract Vm"}],"stateMutability":"view"}],"bytecode":{"object":"0x61172e610053600b82828239805160001a607314610046577f4e487b7100000000000000000000000000000000000000000000000000000000600052600060045260246000fd5b30600052607381538281f3fe730000000000000000000000000000000000000000301460806040526004361061006c5760003560e01c806326dceeb7146100715780632aa1c696146100ae5780633a768463146100cc578063a6066fa5146100ea578063d76ca83d14610108578063e374cdf114610138575b600080fd5b81801561007d57600080fd5b5061009860048036038101906100939190610cf1565b610175565b6040516100a59190610ded565b60405180910390f35b6100b661067e565b6040516100c39190610e87565b60405180910390f35b6100d46106b7565b6040516100e19190610f08565b60405180910390f35b6100f26106e4565b6040516100ff9190610e87565b60405180910390f35b610122600480360381019061011d9190610f23565b610700565b60405161012f9190610e87565b60405180910390f35b81801561014457600080fd5b5061015f600480360381019061015a9190610f6c565b6109a3565b60405161016c9190610ded565b60405180910390f35b600061018083610700565b925061018b82610700565b91506000600167ffffffffffffffff8111156101aa576101a9610b90565b5b6040519080825280602002602001820160405280156101dd57816020015b60608152602001906001900390816101c85790505b5090506040518060400160405280600381526020017f70776400000000000000000000000000000000000000000000000000000000008152508160008151811061022a57610229610fc8565b5b602002602001018190525060007f885cb69240a935d632d79c317109709ecfa91a80626ff3989d68f67f5b1dd12d60001c60601b60601c73ffffffffffffffffffffffffffffffffffffffff166389160467836040518263ffffffff1660e01b81526004016102999190611103565b6000604051808303816000875af11580156102b8573d6000803e3d6000fd5b505050506040513d6000823e3d601f19601f820116820180604052508101906102e191906111c6565b90506000600567ffffffffffffffff811115610300576102ff610b90565b5b60405190808252806020026020018201604052801561033357816020015b606081526020019060019003908161031e5790505b5090506040518060400160405280600481526020017f6261736800000000000000000000000000000000000000000000000000000000815250816000815181106103805761037f610fc8565b5b6020026020010181905250818560405160200161039e92919061124b565b604051602081830303815290604052816001815181106103c1576103c0610fc8565b5b602002602001018190525087816002815181106103e1576103e0610fc8565b5b60200260200101819052507f885cb69240a935d632d79c317109709ecfa91a80626ff3989d68f67f5b1dd12d60001c60601b60601c73ffffffffffffffffffffffffffffffffffffffff16636900a3ae886040518263ffffffff1660e01b815260040161044e919061127e565b600060405180830381865afa15801561046b573d6000803e3d6000fd5b505050506040513d6000823e3d601f19601f820116820180604052508101906104949190611309565b816003815181106104a8576104a7610fc8565b5b602002602001018190525081866040516020016104c6929190611378565b604051602081830303815290604052816004815181106104e9576104e8610fc8565b5b602002602001018190525060007f885cb69240a935d632d79c317109709ecfa91a80626ff3989d68f67f5b1dd12d60001c60601b60601c73ffffffffffffffffffffffffffffffffffffffff166389160467836040518263ffffffff1660e01b81526004016105589190611103565b6000604051808303816000875af1158015610577573d6000803e3d6000fd5b505050506040513d6000823e3d601f19601f820116820180604052508101906105a091906111c6565b90506105e06040518060400160405280600c81526020017f52657475726e20446174613a0000000000000000000000000000000000000000815250610a06565b6105e981610a9f565b6000816105f590611414565b60601c9050600073ffffffffffffffffffffffffffffffffffffffff168173ffffffffffffffffffffffffffffffffffffffff161461063b578095505050505050610676565b6040517f08c379a000000000000000000000000000000000000000000000000000000000815260040161066d906114d8565b60405180910390fd5b949350505050565b6040518060400160405280600b81526020017f2e2f62726f61646361737400000000000000000000000000000000000000000081525081565b7f885cb69240a935d632d79c317109709ecfa91a80626ff3989d68f67f5b1dd12d60001c60601b60601c81565b6040518060600160405280603181526020016116c86031913981565b606060008290506000808251905060005b835181101561079b577f200000000000000000000000000000000000000000000000000000000000000084828151811061074e5761074d610fc8565b5b602001015160f81c60f81b7effffffffffffffffffffffffffffffffffffffffffffffffffffffffffffff1916146107885780925061079b565b808061079390611527565b915050610711565b506000835190505b6000811115610839577f2000000000000000000000000000000000000000000000000000000000000000846001836107db919061156f565b815181106107ec576107eb610fc8565b5b602001015160f81c60f81b7effffffffffffffffffffffffffffffffffffffffffffffffffffffffffffff19161461082657809150610839565b8080610831906115a3565b9150506107a3565b507f2e0000000000000000000000000000000000000000000000000000000000000083838151811061086e5761086d610fc8565b5b602001015160f81c60f81b7effffffffffffffffffffffffffffffffffffffffffffffffffffffffffffff1916036108b0576001826108ad91906115cc565b91505b600082826108be919061156f565b67ffffffffffffffff8111156108d7576108d6610b90565b5b6040519080825280601f01601f1916602001820160405280156109095781602001600182028036833780820191505090505b50905060005b81518110156109965784818561092591906115cc565b8151811061093657610935610fc8565b5b602001015160f81c60f81b82828151811061095457610953610fc8565b5b60200101907effffffffffffffffffffffffffffffffffffffffffffffffffffffffffffff1916908160001a905350808061098e90611527565b91505061090f565b5080945050505050919050565b60006109fe83836040518060400160405280600b81526020017f2e2f62726f6164636173740000000000000000000000000000000000000000008152506040518060600160405280603181526020016116c860319139610175565b905092915050565b610a9c81604051602401610a1a9190611639565b6040516020818303038152906040527f41304fac000000000000000000000000000000000000000000000000000000007bffffffffffffffffffffffffffffffffffffffffffffffffffffffff19166020820180517bffffffffffffffffffffffffffffffffffffffffffffffffffffffff8381831617835250505050610b38565b50565b610b3581604051602401610ab391906116a5565b6040516020818303038152906040527f0be77f56000000000000000000000000000000000000000000000000000000007bffffffffffffffffffffffffffffffffffffffffffffffffffffffff19166020820180517bffffffffffffffffffffffffffffffffffffffffffffffffffffffff8381831617835250505050610b38565b50565b60008151905060006a636f6e736f6c652e6c6f679050602083016000808483855afa5050505050565b6000604051905090565b600080fd5b600080fd5b600080fd5b600080fd5b6000601f19601f8301169050919050565b7f4e487b7100000000000000000000000000000000000000000000000000000000600052604160045260246000fd5b610bc882610b7f565b810181811067ffffffffffffffff82111715610be757610be6610b90565b5b80604052505050565b6000610bfa610b61565b9050610c068282610bbf565b919050565b600067ffffffffffffffff821115610c2657610c25610b90565b5b610c2f82610b7f565b9050602081019050919050565b82818337600083830152505050565b6000610c5e610c5984610c0b565b610bf0565b905082815260208101848484011115610c7a57610c79610b7a565b5b610c85848285610c3c565b509392505050565b600082601f830112610ca257610ca1610b75565b5b8135610cb2848260208601610c4b565b91505092915050565b6000819050919050565b610cce81610cbb565b8114610cd957600080fd5b50565b600081359050610ceb81610cc5565b92915050565b60008060008060808587031215610d0b57610d0a610b6b565b5b600085013567ffffffffffffffff811115610d2957610d28610b70565b5b610d3587828801610c8d565b9450506020610d4687828801610cdc565b935050604085013567ffffffffffffffff811115610d6757610d66610b70565b5b610d7387828801610c8d565b925050606085013567ffffffffffffffff811115610d9457610d93610b70565b5b610da087828801610c8d565b91505092959194509250565b600073ffffffffffffffffffffffffffffffffffffffff82169050919050565b6000610dd782610dac565b9050919050565b610de781610dcc565b82525050565b6000602082019050610e026000830184610dde565b92915050565b600081519050919050565b600082825260208201905092915050565b60005b83811015610e42578082015181840152602081019050610e27565b60008484015250505050565b6000610e5982610e08565b610e638185610e13565b9350610e73818560208601610e24565b610e7c81610b7f565b840191505092915050565b60006020820190508181036000830152610ea18184610e4e565b905092915050565b6000819050919050565b6000610ece610ec9610ec484610dac565b610ea9565b610dac565b9050919050565b6000610ee082610eb3565b9050919050565b6000610ef282610ed5565b9050919050565b610f0281610ee7565b82525050565b6000602082019050610f1d6000830184610ef9565b92915050565b600060208284031215610f3957610f38610b6b565b5b600082013567ffffffffffffffff811115610f5757610f56610b70565b5b610f6384828501610c8d565b91505092915050565b60008060408385031215610f8357610f82610b6b565b5b600083013567ffffffffffffffff811115610fa157610fa0610b70565b5b610fad85828601610c8d565b9250506020610fbe85828601610cdc565b9150509250929050565b7f4e487b7100000000000000000000000000000000000000000000000000000000600052603260045260246000fd5b600081519050919050565b600082825260208201905092915050565b6000819050602082019050919050565b600082825260208201905092915050565b600061103f82610e08565b6110498185611023565b9350611059818560208601610e24565b61106281610b7f565b840191505092915050565b60006110798383611034565b905092915050565b6000602082019050919050565b600061109982610ff7565b6110a38185611002565b9350836020820285016110b585611013565b8060005b858110156110f157848403895281516110d2858261106d565b94506110dd83611081565b925060208a019950506001810190506110b9565b50829750879550505050505092915050565b6000602082019050818103600083015261111d818461108e565b905092915050565b600067ffffffffffffffff8211156111405761113f610b90565b5b61114982610b7f565b9050602081019050919050565b600061116961116484611125565b610bf0565b90508281526020810184848401111561118557611184610b7a565b5b611190848285610e24565b509392505050565b600082601f8301126111ad576111ac610b75565b5b81516111bd848260208601611156565b91505092915050565b6000602082840312156111dc576111db610b6b565b5b600082015167ffffffffffffffff8111156111fa576111f9610b70565b5b61120684828501611198565b91505092915050565b600081905092915050565b600061122582610e08565b61122f818561120f565b935061123f818560208601610e24565b80840191505092915050565b6000611257828561121a565b9150611263828461121a565b91508190509392505050565b61127881610cbb565b82525050565b6000602082019050611293600083018461126f565b92915050565b60006112ac6112a784610c0b565b610bf0565b9050828152602081018484840111156112c8576112c7610b7a565b5b6112d3848285610e24565b509392505050565b600082601f8301126112f0576112ef610b75565b5b8151611300848260208601611299565b91505092915050565b60006020828403121561131f5761131e610b6b565b5b600082015167ffffffffffffffff81111561133d5761133c610b70565b5b611349848285016112db565b91505092915050565b7f2f00000000000000000000000000000000000000000000000000000000000000815250565b6000611384828561121a565b915061138f82611352565b60018201915061139f828461121a565b91508190509392505050565b600081519050919050565b6000819050602082019050919050565b60007fffffffffffffffffffffffffffffffffffffffff00000000000000000000000082169050919050565b60006113fe82516113c6565b80915050919050565b600082821b905092915050565b600061141f826113ab565b82611429846113b6565b9050611434816113f2565b925060148210156114745761146f7fffffffffffffffffffffffffffffffffffffffff00000000000000000000000083601403600802611407565b831692505b5050919050565b600082825260208201905092915050565b7f4e6f20636f6e7472616374206465706c6f796564000000000000000000000000600082015250565b60006114c260148361147b565b91506114cd8261148c565b602082019050919050565b600060208201905081810360008301526114f1816114b5565b9050919050565b7f4e487b7100000000000000000000000000000000000000000000000000000000600052601160045260246000fd5b600061153282610cbb565b91507fffffffffffffffffffffffffffffffffffffffffffffffffffffffffffffffff8203611564576115636114f8565b5b600182019050919050565b600061157a82610cbb565b915061158583610cbb565b925082820390508181111561159d5761159c6114f8565b5b92915050565b60006115ae82610cbb565b9150600082036115c1576115c06114f8565b5b600182039050919050565b60006115d782610cbb565b91506115e283610cbb565b92508282019050808211156115fa576115f96114f8565b5b92915050565b600061160b82610e08565b611615818561147b565b9350611625818560208601610e24565b61162e81610b7f565b840191505092915050565b600060208201905081810360008301526116538184611600565b905092915050565b600082825260208201905092915050565b6000611677826113ab565b611681818561165b565b9350611691818560208601610e24565b61169a81610b7f565b840191505092915050565b600060208201905081810360008301526116bf818461166c565b90509291505056fe2e2f6c69622f666f756e6472792d6465766f70732f7372632f6765745f726563656e745f6465706c6f796d656e742e7368a26469706673582212201defe563946a22aab0e9f2350675e8f0c01cd90188fcda73974fb58c517c453e64736f6c63430008130033","linkReferences":{}},"methodIdentifiers":{"RELATIVE_BROADCAST_PATH()":"2aa1c696","RELATIVE_SCRIPT_PATH()":"a6066fa5","cleanStringPath(string)":"d76ca83d","get_most_recent_deployment(string,uint256)":"e374cdf1","get_most_recent_deployment(string,uint256,string,string)":"26dceeb7","vm()":"3a768463"},"id":19}